{
  "contractName": "DocDex",
  "abi": [
    {
      "inputs": [],
      "stateMutability": "nonpayable",
      "type": "constructor"
    },
    {
      "inputs": [
        {
          "internalType": "address",
          "name": "",
          "type": "address"
        },
        {
          "internalType": "uint256",
          "name": "",
          "type": "uint256"
        }
      ],
      "name": "documentStorage",
      "outputs": [
        {
          "internalType": "string",
          "name": "name",
          "type": "string"
        },
        {
          "internalType": "string",
          "name": "hashString",
          "type": "string"
        }
      ],
      "stateMutability": "view",
      "type": "function",
      "constant": true
    },
    {
      "inputs": [
        {
          "internalType": "string",
          "name": "_name",
          "type": "string"
        },
        {
          "internalType": "string",
          "name": "_hash",
          "type": "string"
        }
      ],
      "name": "addDocument",
      "outputs": [],
      "stateMutability": "nonpayable",
      "type": "function"
    },
    {
      "inputs": [
        {
          "internalType": "address",
          "name": "owner",
          "type": "address"
        },
        {
          "internalType": "uint256",
          "name": "index",
          "type": "uint256"
        }
      ],
      "name": "getDocument",
      "outputs": [
        {
          "internalType": "string",
          "name": "name",
          "type": "string"
        },
        {
          "internalType": "string",
          "name": "hashString",
          "type": "string"
        }
      ],
      "stateMutability": "view",
      "type": "function",
      "constant": true
    },
    {
      "inputs": [],
      "name": "getOwnerDocumentsCount",
      "outputs": [
        {
          "internalType": "uint256",
          "name": "",
          "type": "uint256"
        }
      ],
      "stateMutability": "view",
      "type": "function",
      "constant": true
    },
    {
      "inputs": [
        {
          "internalType": "address",
          "name": "owner",
          "type": "address"
        }
      ],
      "name": "getDocumentsCount",
      "outputs": [
        {
          "internalType": "uint256",
          "name": "",
          "type": "uint256"
        }
      ],
      "stateMutability": "view",
      "type": "function",
      "constant": true
    },
    {
      "inputs": [
        {
          "internalType": "uint256",
          "name": "index",
          "type": "uint256"
        }
      ],
      "name": "removeOwnerDocument",
      "outputs": [],
      "stateMutability": "nonpayable",
      "type": "function"
    }
  ],
  "bytecode": "0x608060405234801561001057600080fd5b50610bc6806100206000396000f3fe608060405234801561001057600080fd5b50600436106100615760003560e01c8062cf87fa1461006657806337f75eb8146100845780634d2b1978146100b5578063cee4f70b146100d1578063dee2c5b914610102578063deff070014610132575b600080fd5b61006e61014e565b60405161007b91906109ab565b60405180910390f35b61009e6004803603810190610099919061085b565b610197565b6040516100ac929190610974565b60405180910390f35b6100cf60048036038101906100ca9190610897565b6102e8565b005b6100eb60048036038101906100e6919061085b565b6103aa565b6040516100f9929190610974565b60405180910390f35b61011c60048036038101906101179190610832565b61057a565b60405161012991906109ab565b60405180910390f35b61014c60048036038101906101479190610903565b6105c5565b005b60008060003373ffffffffffffffffffffffffffffffffffffffff1673ffffffffffffffffffffffffffffffffffffffff16815260200190815260200160002080549050905090565b600060205281600052604060002081815481106101b357600080fd5b9060005260206000209060020201600091509150508060000180546101d790610ac1565b80601f016020809104026020016040519081016040528092919081815260200182805461020390610ac1565b80156102505780601f1061022557610100808354040283529160200191610250565b820191906000526020600020905b81548152906001019060200180831161023357829003601f168201915b50505050509080600101805461026590610ac1565b80601f016020809104026020016040519081016040528092919081815260200182805461029190610ac1565b80156102de5780601f106102b3576101008083540402835291602001916102de565b820191906000526020600020905b8154815290600101906020018083116102c157829003601f168201915b5050505050905082565b600060405180604001604052808481526020018381525090506000803373ffffffffffffffffffffffffffffffffffffffff1673ffffffffffffffffffffffffffffffffffffffff16815260200190815260200160002081908060018154018082558091505060019003906000526020600020906002020160009091909190915060008201518160000190805190602001906103859291906106bd565b5060208201518160010190805190602001906103a29291906106bd565b505050505050565b60608060008060008673ffffffffffffffffffffffffffffffffffffffff1673ffffffffffffffffffffffffffffffffffffffff1681526020019081526020016000208481548110610425577f4e487b7100000000000000000000000000000000000000000000000000000000600052603260045260246000fd5b906000526020600020906002020160405180604001604052908160008201805461044e90610ac1565b80601f016020809104026020016040519081016040528092919081815260200182805461047a90610ac1565b80156104c75780601f1061049c576101008083540402835291602001916104c7565b820191906000526020600020905b8154815290600101906020018083116104aa57829003601f168201915b505050505081526020016001820180546104e090610ac1565b80601f016020809104026020016040519081016040528092919081815260200182805461050c90610ac1565b80156105595780601f1061052e57610100808354040283529160200191610559565b820191906000526020600020905b81548152906001019060200180831161053c57829003601f168201915b50505050508152505090508060000151816020015192509250509250929050565b60008060008373ffffffffffffffffffffffffffffffffffffffff1673ffffffffffffffffffffffffffffffffffffffff168152602001908152602001600020805490509050919050565b6000803373ffffffffffffffffffffffffffffffffffffffff1673ffffffffffffffffffffffffffffffffffffffff168152602001908152602001600020805490508110610612576106ba565b6000803373ffffffffffffffffffffffffffffffffffffffff1673ffffffffffffffffffffffffffffffffffffffff1681526020019081526020016000208181548110610688577f4e487b7100000000000000000000000000000000000000000000000000000000600052603260045260246000fd5b9060005260206000209060020201600080820160006106a79190610743565b6001820160006106b79190610743565b50505b50565b8280546106c990610ac1565b90600052602060002090601f0160209004810192826106eb5760008555610732565b82601f1061070457805160ff1916838001178555610732565b82800160010185558215610732579182015b82811115610731578251825591602001919060010190610716565b5b50905061073f9190610783565b5090565b50805461074f90610ac1565b6000825580601f106107615750610780565b601f01602090049060005260206000209081019061077f9190610783565b5b50565b5b8082111561079c576000816000905550600101610784565b5090565b60006107b36107ae846109f7565b6109c6565b9050828152602081018484840111156107cb57600080fd5b6107d6848285610a7f565b509392505050565b6000813590506107ed81610b62565b92915050565b600082601f83011261080457600080fd5b81356108148482602086016107a0565b91505092915050565b60008135905061082c81610b79565b92915050565b60006020828403121561084457600080fd5b6000610852848285016107de565b91505092915050565b6000806040838503121561086e57600080fd5b600061087c858286016107de565b925050602061088d8582860161081d565b9150509250929050565b600080604083850312156108aa57600080fd5b600083013567ffffffffffffffff8111156108c457600080fd5b6108d0858286016107f3565b925050602083013567ffffffffffffffff8111156108ed57600080fd5b6108f9858286016107f3565b9150509250929050565b60006020828403121561091557600080fd5b60006109238482850161081d565b91505092915050565b600061093782610a27565b6109418185610a32565b9350610951818560208601610a8e565b61095a81610b51565b840191505092915050565b61096e81610a75565b82525050565b6000604082019050818103600083015261098e818561092c565b905081810360208301526109a2818461092c565b90509392505050565b60006020820190506109c06000830184610965565b92915050565b6000604051905081810181811067ffffffffffffffff821117156109ed576109ec610b22565b5b8060405250919050565b600067ffffffffffffffff821115610a1257610a11610b22565b5b601f19601f8301169050602081019050919050565b600081519050919050565b600082825260208201905092915050565b6000610a4e82610a55565b9050919050565b600073ffffffffffffffffffffffffffffffffffffffff82169050919050565b6000819050919050565b82818337600083830152505050565b60005b83811015610aac578082015181840152602081019050610a91565b83811115610abb576000848401525b50505050565b60006002820490506001821680610ad957607f821691505b60208210811415610aed57610aec610af3565b5b50919050565b7f4e487b7100000000000000000000000000000000000000000000000000000000600052602260045260246000fd5b7f4e487b7100000000000000000000000000000000000000000000000000000000600052604160045260246000fd5b6000601f19601f8301169050919050565b610b6b81610a43565b8114610b7657600080fd5b50565b610b8281610a75565b8114610b8d57600080fd5b5056fea2646970667358221220f7346b1e9f513aefeee0b0b1b81bfc08b24c2cea0e1fe5150257ccaafa1492ec64736f6c63430008000033",
  "immutableReferences": {},
  "source": "// SPDX-License-Identifier: MIT\npragma solidity ^0.8.0;\n\ncontract DocDex {\n    struct Document {\n        string name;\n        string hashString;\n    }\n\n    mapping(address => Document[]) public documentStorage;\n\n    constructor() {}\n\n    function addDocument(string memory _name, string memory _hash) public {\n        Document memory doc = Document(_name, _hash);\n        documentStorage[msg.sender].push(doc);\n    }\n\n    function getDocument(address owner, uint256 index)\n        public\n        view\n        returns (string memory name, string memory hashString)\n    {\n        Document memory doc = documentStorage[owner][index];\n        return (doc.name, doc.hashString);\n    }\n\n    function getOwnerDocumentsCount() public view returns (uint256) {\n        return documentStorage[msg.sender].length;\n    }\n\n    function getDocumentsCount(address owner) public view returns (uint256) {\n        return documentStorage[owner].length;\n    }\n\n    function removeOwnerDocument(uint256 index) public {\n        if (index >= documentStorage[msg.sender].length) return;\n        delete documentStorage[msg.sender][index];\n    }\n}\n",
  "sourcePath": "/Users/abdelmbyassaroukou/dev/UT-Patent/contracts/DocDex.sol",
  "compiler": {
    "name": "solc",
    "version": "0.8.0+commit.c7dfd78e.Emscripten.clang"
  },
  "schemaVersion": "3.4.0",
  "updatedAt": "2021-11-30T01:20:57.301Z",
  "networkType": "ethereum",
  "devdoc": {
    "kind": "dev",
    "methods": {},
    "version": 1
  },
  "userdoc": {
    "kind": "user",
    "methods": {},
    "version": 1
  }
}