{
  "contractName": "UTIdeaPatent",
  "abi": [
    {
      "inputs": [],
      "stateMutability": "nonpayable",
      "type": "constructor"
    },
    {
      "anonymous": false,
      "inputs": [
        {
          "indexed": true,
          "internalType": "address",
          "name": "owner",
          "type": "address"
        },
        {
          "indexed": true,
          "internalType": "address",
          "name": "approved",
          "type": "address"
        },
        {
          "indexed": true,
          "internalType": "uint256",
          "name": "tokenId",
          "type": "uint256"
        }
      ],
      "name": "Approval",
      "type": "event"
    },
    {
      "anonymous": false,
      "inputs": [
        {
          "indexed": true,
          "internalType": "address",
          "name": "owner",
          "type": "address"
        },
        {
          "indexed": true,
          "internalType": "address",
          "name": "operator",
          "type": "address"
        },
        {
          "indexed": false,
          "internalType": "bool",
          "name": "approved",
          "type": "bool"
        }
      ],
      "name": "ApprovalForAll",
      "type": "event"
    },
    {
      "anonymous": false,
      "inputs": [
        {
          "indexed": true,
          "internalType": "address",
          "name": "from",
          "type": "address"
        },
        {
          "indexed": true,
          "internalType": "address",
          "name": "to",
          "type": "address"
        },
        {
          "indexed": true,
          "internalType": "uint256",
          "name": "tokenId",
          "type": "uint256"
        }
      ],
      "name": "Transfer",
      "type": "event"
    },
    {
      "inputs": [
        {
          "internalType": "address",
          "name": "to",
          "type": "address"
        },
        {
          "internalType": "uint256",
          "name": "tokenId",
          "type": "uint256"
        }
      ],
      "name": "approve",
      "outputs": [],
      "stateMutability": "nonpayable",
      "type": "function"
    },
    {
      "inputs": [
        {
          "internalType": "address",
          "name": "owner",
          "type": "address"
        }
      ],
      "name": "balanceOf",
      "outputs": [
        {
          "internalType": "uint256",
          "name": "",
          "type": "uint256"
        }
      ],
      "stateMutability": "view",
      "type": "function",
      "constant": true
    },
    {
      "inputs": [
        {
          "internalType": "uint256",
          "name": "tokenId",
          "type": "uint256"
        }
      ],
      "name": "getApproved",
      "outputs": [
        {
          "internalType": "address",
          "name": "",
          "type": "address"
        }
      ],
      "stateMutability": "view",
      "type": "function",
      "constant": true
    },
    {
      "inputs": [
        {
          "internalType": "address",
          "name": "owner",
          "type": "address"
        },
        {
          "internalType": "address",
          "name": "operator",
          "type": "address"
        }
      ],
      "name": "isApprovedForAll",
      "outputs": [
        {
          "internalType": "bool",
          "name": "",
          "type": "bool"
        }
      ],
      "stateMutability": "view",
      "type": "function",
      "constant": true
    },
    {
      "inputs": [],
      "name": "name",
      "outputs": [
        {
          "internalType": "string",
          "name": "",
          "type": "string"
        }
      ],
      "stateMutability": "view",
      "type": "function",
      "constant": true
    },
    {
      "inputs": [
        {
          "internalType": "uint256",
          "name": "tokenId",
          "type": "uint256"
        }
      ],
      "name": "ownerOf",
      "outputs": [
        {
          "internalType": "address",
          "name": "",
          "type": "address"
        }
      ],
      "stateMutability": "view",
      "type": "function",
      "constant": true
    },
    {
      "inputs": [
        {
          "internalType": "address",
          "name": "from",
          "type": "address"
        },
        {
          "internalType": "address",
          "name": "to",
          "type": "address"
        },
        {
          "internalType": "uint256",
          "name": "tokenId",
          "type": "uint256"
        }
      ],
      "name": "safeTransferFrom",
      "outputs": [],
      "stateMutability": "nonpayable",
      "type": "function"
    },
    {
      "inputs": [
        {
          "internalType": "address",
          "name": "from",
          "type": "address"
        },
        {
          "internalType": "address",
          "name": "to",
          "type": "address"
        },
        {
          "internalType": "uint256",
          "name": "tokenId",
          "type": "uint256"
        },
        {
          "internalType": "bytes",
          "name": "_data",
          "type": "bytes"
        }
      ],
      "name": "safeTransferFrom",
      "outputs": [],
      "stateMutability": "nonpayable",
      "type": "function"
    },
    {
      "inputs": [
        {
          "internalType": "address",
          "name": "operator",
          "type": "address"
        },
        {
          "internalType": "bool",
          "name": "approved",
          "type": "bool"
        }
      ],
      "name": "setApprovalForAll",
      "outputs": [],
      "stateMutability": "nonpayable",
      "type": "function"
    },
    {
      "inputs": [
        {
          "internalType": "bytes4",
          "name": "interfaceId",
          "type": "bytes4"
        }
      ],
      "name": "supportsInterface",
      "outputs": [
        {
          "internalType": "bool",
          "name": "",
          "type": "bool"
        }
      ],
      "stateMutability": "view",
      "type": "function",
      "constant": true
    },
    {
      "inputs": [],
      "name": "symbol",
      "outputs": [
        {
          "internalType": "string",
          "name": "",
          "type": "string"
        }
      ],
      "stateMutability": "view",
      "type": "function",
      "constant": true
    },
    {
      "inputs": [
        {
          "internalType": "uint256",
          "name": "index",
          "type": "uint256"
        }
      ],
      "name": "tokenByIndex",
      "outputs": [
        {
          "internalType": "uint256",
          "name": "",
          "type": "uint256"
        }
      ],
      "stateMutability": "view",
      "type": "function",
      "constant": true
    },
    {
      "inputs": [
        {
          "internalType": "uint256",
          "name": "",
          "type": "uint256"
        }
      ],
      "name": "tokenIdToIdeaInfo",
      "outputs": [
        {
          "internalType": "string",
          "name": "name",
          "type": "string"
        },
        {
          "internalType": "string",
          "name": "description",
          "type": "string"
        }
      ],
      "stateMutability": "view",
      "type": "function",
      "constant": true
    },
    {
      "inputs": [
        {
          "internalType": "address",
          "name": "owner",
          "type": "address"
        },
        {
          "internalType": "uint256",
          "name": "index",
          "type": "uint256"
        }
      ],
      "name": "tokenOfOwnerByIndex",
      "outputs": [
        {
          "internalType": "uint256",
          "name": "",
          "type": "uint256"
        }
      ],
      "stateMutability": "view",
      "type": "function",
      "constant": true
    },
    {
      "inputs": [
        {
          "internalType": "uint256",
          "name": "tokenId",
          "type": "uint256"
        }
      ],
      "name": "tokenURI",
      "outputs": [
        {
          "internalType": "string",
          "name": "",
          "type": "string"
        }
      ],
      "stateMutability": "view",
      "type": "function",
      "constant": true
    },
    {
      "inputs": [],
      "name": "totalSupply",
      "outputs": [
        {
          "internalType": "uint256",
          "name": "",
          "type": "uint256"
        }
      ],
      "stateMutability": "view",
      "type": "function",
      "constant": true
    },
    {
      "inputs": [
        {
          "internalType": "address",
          "name": "from",
          "type": "address"
        },
        {
          "internalType": "address",
          "name": "to",
          "type": "address"
        },
        {
          "internalType": "uint256",
          "name": "tokenId",
          "type": "uint256"
        }
      ],
      "name": "transferFrom",
      "outputs": [],
      "stateMutability": "nonpayable",
      "type": "function"
    },
    {
      "inputs": [
        {
          "internalType": "string",
          "name": "_name",
          "type": "string"
        },
        {
          "internalType": "string",
          "name": "_description",
          "type": "string"
        }
      ],
      "name": "createIdea",
      "outputs": [],
      "stateMutability": "nonpayable",
      "type": "function"
    },
    {
      "inputs": [
        {
          "internalType": "address",
          "name": "_to1",
          "type": "address"
        },
        {
          "internalType": "uint256",
          "name": "_tokenId",
          "type": "uint256"
        }
      ],
      "name": "transferIdea",
      "outputs": [],
      "stateMutability": "nonpayable",
      "type": "function"
    }
  ],
  "bytecode": "0x60806040523480156200001157600080fd5b506040518060400160405280600b81526020017f506174656e7420496465610000000000000000000000000000000000000000008152506040518060400160405280600381526020017f5550490000000000000000000000000000000000000000000000000000000000815250816000908051906020019062000096929190620000c0565b508060019080519060200190620000af929190620000c0565b5050506000600a81905550620001d5565b828054620000ce9062000170565b90600052602060002090601f016020900481019282620000f257600085556200013e565b82601f106200010d57805160ff19168380011785556200013e565b828001600101855582156200013e579182015b828111156200013d57825182559160200191906001019062000120565b5b5090506200014d919062000151565b5090565b5b808211156200016c57600081600090555060010162000152565b5090565b600060028204905060018216806200018957607f821691505b60208210811415620001a0576200019f620001a6565b5b50919050565b7f4e487b7100000000000000000000000000000000000000000000000000000000600052602260045260246000fd5b61329a80620001e56000396000f3fe608060405234801561001057600080fd5b50600436106101215760003560e01c80636352211e116100ad578063b1b6713511610071578063b1b671351461032c578063b88d4fde14610348578063c3c3080514610364578063c87b56dd14610395578063e985e9c5146103c557610121565b80636352211e146102765780636918659e146102a657806370a08231146102c257806395d89b41146102f2578063a22cb4651461031057610121565b806318160ddd116100f457806318160ddd146101c057806323b872dd146101de5780632f745c59146101fa57806342842e0e1461022a5780634f6ccce71461024657610121565b806301ffc9a71461012657806306fdde0314610156578063081812fc14610174578063095ea7b3146101a4575b600080fd5b610140600480360381019061013b919061232b565b6103f5565b60405161014d9190612b9b565b60405180910390f35b61015e61046f565b60405161016b9190612bb6565b60405180910390f35b61018e600480360381019061018991906123e9565b610501565b60405161019b9190612b34565b60405180910390f35b6101be60048036038101906101b991906122ef565b610586565b005b6101c861069e565b6040516101d59190612e2f565b60405180910390f35b6101f860048036038101906101f391906121e9565b6106ab565b005b610214600480360381019061020f91906122ef565b61070b565b6040516102219190612e2f565b60405180910390f35b610244600480360381019061023f91906121e9565b6107b0565b005b610260600480360381019061025b91906123e9565b6107d0565b60405161026d9190612e2f565b60405180910390f35b610290600480360381019061028b91906123e9565b610867565b60405161029d9190612b34565b60405180910390f35b6102c060048036038101906102bb919061237d565b610919565b005b6102dc60048036038101906102d79190612184565b6109ab565b6040516102e99190612e2f565b60405180910390f35b6102fa610a63565b6040516103079190612bb6565b60405180910390f35b61032a600480360381019061032591906122b3565b610af5565b005b610346600480360381019061034191906122ef565b610c76565b005b610362600480360381019061035d9190612238565b610cfb565b005b61037e600480360381019061037991906123e9565b610d5d565b60405161038c929190612bd8565b60405180910390f35b6103af60048036038101906103aa91906123e9565b610e91565b6040516103bc9190612bb6565b60405180910390f35b6103df60048036038101906103da91906121ad565b610f38565b6040516103ec9190612b9b565b60405180910390f35b60007f780e9d63000000000000000000000000000000000000000000000000000000007bffffffffffffffffffffffffffffffffffffffffffffffffffffffff1916827bffffffffffffffffffffffffffffffffffffffffffffffffffffffff19161480610468575061046782610fcc565b5b9050919050565b60606000805461047e9061308f565b80601f01602080910402602001604051908101604052809291908181526020018280546104aa9061308f565b80156104f75780601f106104cc576101008083540402835291602001916104f7565b820191906000526020600020905b8154815290600101906020018083116104da57829003601f168201915b5050505050905090565b600061050c826110ae565b61054b576040517f08c379a000000000000000000000000000000000000000000000000000000000815260040161054290612d6f565b60405180910390fd5b6004600083815260200190815260200160002060009054906101000a900473ffffffffffffffffffffffffffffffffffffffff169050919050565b600061059182610867565b90508073ffffffffffffffffffffffffffffffffffffffff168373ffffffffffffffffffffffffffffffffffffffff161415610602576040517f08c379a00000000000000000000000000000000000000000000000000000000081526004016105f990612dcf565b60405180910390fd5b8073ffffffffffffffffffffffffffffffffffffffff1661062161111a565b73ffffffffffffffffffffffffffffffffffffffff161480610650575061064f8161064a61111a565b610f38565b5b61068f576040517f08c379a000000000000000000000000000000000000000000000000000000000815260040161068690612cef565b60405180910390fd5b6106998383611122565b505050565b6000600880549050905090565b6106bc6106b661111a565b826111db565b6106fb576040517f08c379a00000000000000000000000000000000000000000000000000000000081526004016106f290612def565b60405180910390fd5b6107068383836112b9565b505050565b6000610716836109ab565b8210610757576040517f08c379a000000000000000000000000000000000000000000000000000000000815260040161074e90612c0f565b60405180910390fd5b600660008473ffffffffffffffffffffffffffffffffffffffff1673ffffffffffffffffffffffffffffffffffffffff168152602001908152602001600020600083815260200190815260200160002054905092915050565b6107cb83838360405180602001604052806000815250610cfb565b505050565b60006107da61069e565b821061081b576040517f08c379a000000000000000000000000000000000000000000000000000000000815260040161081290612e0f565b60405180910390fd5b60088281548110610855577f4e487b7100000000000000000000000000000000000000000000000000000000600052603260045260246000fd5b90600052602060002001549050919050565b6000806002600084815260200190815260200160002060009054906101000a900473ffffffffffffffffffffffffffffffffffffffff169050600073ffffffffffffffffffffffffffffffffffffffff168173ffffffffffffffffffffffffffffffffffffffff161415610910576040517f08c379a000000000000000000000000000000000000000000000000000000000815260040161090790612d2f565b60405180910390fd5b80915050919050565b6001600a546109289190612f1e565b600a819055506000604051806040016040528084815260200183815250905080600b6000600a5481526020019081526020016000206000820151816000019080519060200190610979929190611fa8565b506020820151816001019080519060200190610996929190611fa8565b509050506109a633600a54611515565b505050565b60008073ffffffffffffffffffffffffffffffffffffffff168273ffffffffffffffffffffffffffffffffffffffff161415610a1c576040517f08c379a0000000000000000000000000000000000000000000000000000000008152600401610a1390612d0f565b60405180910390fd5b600360008373ffffffffffffffffffffffffffffffffffffffff1673ffffffffffffffffffffffffffffffffffffffff168152602001908152602001600020549050919050565b606060018054610a729061308f565b80601f0160208091040260200160405190810160405280929190818152602001828054610a9e9061308f565b8015610aeb5780601f10610ac057610100808354040283529160200191610aeb565b820191906000526020600020905b815481529060010190602001808311610ace57829003601f168201915b5050505050905090565b610afd61111a565b73ffffffffffffffffffffffffffffffffffffffff168273ffffffffffffffffffffffffffffffffffffffff161415610b6b576040517f08c379a0000000000000000000000000000000000000000000000000000000008152600401610b6290612caf565b60405180910390fd5b8060056000610b7861111a565b73ffffffffffffffffffffffffffffffffffffffff1673ffffffffffffffffffffffffffffffffffffffff16815260200190815260200160002060008473ffffffffffffffffffffffffffffffffffffffff1673ffffffffffffffffffffffffffffffffffffffff16815260200190815260200160002060006101000a81548160ff0219169083151502179055508173ffffffffffffffffffffffffffffffffffffffff16610c2561111a565b73ffffffffffffffffffffffffffffffffffffffff167f17307eab39ab6107e8899845ad3d59bd9653f200f220920489ca2b5937696c3183604051610c6a9190612b9b565b60405180910390a35050565b610c7f81610867565b73ffffffffffffffffffffffffffffffffffffffff163373ffffffffffffffffffffffffffffffffffffffff1614610cec576040517f08c379a0000000000000000000000000000000000000000000000000000000008152600401610ce390612c6f565b60405180910390fd5b610cf73383836107b0565b5050565b610d0c610d0661111a565b836111db565b610d4b576040517f08c379a0000000000000000000000000000000000000000000000000000000008152600401610d4290612def565b60405180910390fd5b610d57848484846116e3565b50505050565b600b602052806000526040600020600091509050806000018054610d809061308f565b80601f0160208091040260200160405190810160405280929190818152602001828054610dac9061308f565b8015610df95780601f10610dce57610100808354040283529160200191610df9565b820191906000526020600020905b815481529060010190602001808311610ddc57829003601f168201915b505050505090806001018054610e0e9061308f565b80601f0160208091040260200160405190810160405280929190818152602001828054610e3a9061308f565b8015610e875780601f10610e5c57610100808354040283529160200191610e87565b820191906000526020600020905b815481529060010190602001808311610e6a57829003601f168201915b5050505050905082565b6060610e9c826110ae565b610edb576040517f08c379a0000000000000000000000000000000000000000000000000000000008152600401610ed290612daf565b60405180910390fd5b6000610ee561173f565b90506000815111610f055760405180602001604052806000815250610f30565b80610f0f84611756565b604051602001610f20929190612b10565b6040516020818303038152906040525b915050919050565b6000600560008473ffffffffffffffffffffffffffffffffffffffff1673ffffffffffffffffffffffffffffffffffffffff16815260200190815260200160002060008373ffffffffffffffffffffffffffffffffffffffff1673ffffffffffffffffffffffffffffffffffffffff16815260200190815260200160002060009054906101000a900460ff16905092915050565b60007f80ac58cd000000000000000000000000000000000000000000000000000000007bffffffffffffffffffffffffffffffffffffffffffffffffffffffff1916827bffffffffffffffffffffffffffffffffffffffffffffffffffffffff1916148061109757507f5b5e139f000000000000000000000000000000000000000000000000000000007bffffffffffffffffffffffffffffffffffffffffffffffffffffffff1916827bffffffffffffffffffffffffffffffffffffffffffffffffffffffff1916145b806110a757506110a682611903565b5b9050919050565b60008073ffffffffffffffffffffffffffffffffffffffff166002600084815260200190815260200160002060009054906101000a900473ffffffffffffffffffffffffffffffffffffffff1673ffffffffffffffffffffffffffffffffffffffff1614159050919050565b600033905090565b816004600083815260200190815260200160002060006101000a81548173ffffffffffffffffffffffffffffffffffffffff021916908373ffffffffffffffffffffffffffffffffffffffff160217905550808273ffffffffffffffffffffffffffffffffffffffff1661119583610867565b73ffffffffffffffffffffffffffffffffffffffff167f8c5be1e5ebec7d5bd14f71427d1e84f3dd0314c0f7b2291e5b200ac8c7c3b92560405160405180910390a45050565b60006111e6826110ae565b611225576040517f08c379a000000000000000000000000000000000000000000000000000000000815260040161121c90612ccf565b60405180910390fd5b600061123083610867565b90508073ffffffffffffffffffffffffffffffffffffffff168473ffffffffffffffffffffffffffffffffffffffff16148061129f57508373ffffffffffffffffffffffffffffffffffffffff1661128784610501565b73ffffffffffffffffffffffffffffffffffffffff16145b806112b057506112af8185610f38565b5b91505092915050565b8273ffffffffffffffffffffffffffffffffffffffff166112d982610867565b73ffffffffffffffffffffffffffffffffffffffff161461132f576040517f08c379a000000000000000000000000000000000000000000000000000000000815260040161132690612d8f565b60405180910390fd5b600073ffffffffffffffffffffffffffffffffffffffff168273ffffffffffffffffffffffffffffffffffffffff16141561139f576040517f08c379a000000000000000000000000000000000000000000000000000000000815260040161139690612c8f565b60405180910390fd5b6113aa83838361196d565b6113b5600082611122565b6001600360008573ffffffffffffffffffffffffffffffffffffffff1673ffffffffffffffffffffffffffffffffffffffff16815260200190815260200160002060008282546114059190612fa5565b925050819055506001600360008473ffffffffffffffffffffffffffffffffffffffff1673ffffffffffffffffffffffffffffffffffffffff168152602001908152602001600020600082825461145c9190612f1e565b92505081905550816002600083815260200190815260200160002060006101000a81548173ffffffffffffffffffffffffffffffffffffffff021916908373ffffffffffffffffffffffffffffffffffffffff160217905550808273ffffffffffffffffffffffffffffffffffffffff168473ffffffffffffffffffffffffffffffffffffffff167fddf252ad1be2c89b69c2b068fc378daa952ba7f163c4a11628f55a4df523b3ef60405160405180910390a4505050565b600073ffffffffffffffffffffffffffffffffffffffff168273ffffffffffffffffffffffffffffffffffffffff161415611585576040517f08c379a000000000000000000000000000000000000000000000000000000000815260040161157c90612d4f565b60405180910390fd5b61158e816110ae565b156115ce576040517f08c379a00000000000000000000000000000000000000000000000000000000081526004016115c590612c4f565b60405180910390fd5b6115da6000838361196d565b6001600360008473ffffffffffffffffffffffffffffffffffffffff1673ffffffffffffffffffffffffffffffffffffffff168152602001908152602001600020600082825461162a9190612f1e565b92505081905550816002600083815260200190815260200160002060006101000a81548173ffffffffffffffffffffffffffffffffffffffff021916908373ffffffffffffffffffffffffffffffffffffffff160217905550808273ffffffffffffffffffffffffffffffffffffffff16600073ffffffffffffffffffffffffffffffffffffffff167fddf252ad1be2c89b69c2b068fc378daa952ba7f163c4a11628f55a4df523b3ef60405160405180910390a45050565b6116ee8484846112b9565b6116fa84848484611a81565b611739576040517f08c379a000000000000000000000000000000000000000000000000000000000815260040161173090612c2f565b60405180910390fd5b50505050565b606060405180602001604052806000815250905090565b6060600082141561179e576040518060400160405280600181526020017f300000000000000000000000000000000000000000000000000000000000000081525090506118fe565b600082905060005b600082146117d05780806117b9906130c1565b915050600a826117c99190612f74565b91506117a6565b60008167ffffffffffffffff811115611812577f4e487b7100000000000000000000000000000000000000000000000000000000600052604160045260246000fd5b6040519080825280601f01601f1916602001820160405280156118445781602001600182028036833780820191505090505b5090505b600085146118f75760018261185d9190612fa5565b9150600a8561186c919061310a565b60306118789190612f1e565b60f81b8183815181106118b4577f4e487b7100000000000000000000000000000000000000000000000000000000600052603260045260246000fd5b60200101907effffffffffffffffffffffffffffffffffffffffffffffffffffffffffffff1916908160001a905350600a856118f09190612f74565b9450611848565b8093505050505b919050565b60007f01ffc9a7000000000000000000000000000000000000000000000000000000007bffffffffffffffffffffffffffffffffffffffffffffffffffffffff1916827bffffffffffffffffffffffffffffffffffffffffffffffffffffffff1916149050919050565b611978838383611c18565b600073ffffffffffffffffffffffffffffffffffffffff168373ffffffffffffffffffffffffffffffffffffffff1614156119bb576119b681611c1d565b6119fa565b8173ffffffffffffffffffffffffffffffffffffffff168373ffffffffffffffffffffffffffffffffffffffff16146119f9576119f88382611c66565b5b5b600073ffffffffffffffffffffffffffffffffffffffff168273ffffffffffffffffffffffffffffffffffffffff161415611a3d57611a3881611dd3565b611a7c565b8273ffffffffffffffffffffffffffffffffffffffff168273ffffffffffffffffffffffffffffffffffffffff1614611a7b57611a7a8282611f16565b5b5b505050565b6000611aa28473ffffffffffffffffffffffffffffffffffffffff16611f95565b15611c0b578373ffffffffffffffffffffffffffffffffffffffff1663150b7a02611acb61111a565b8786866040518563ffffffff1660e01b8152600401611aed9493929190612b4f565b602060405180830381600087803b158015611b0757600080fd5b505af1925050508015611b3857506040513d601f19601f82011682018060405250810190611b359190612354565b60015b611bbb573d8060008114611b68576040519150601f19603f3d011682016040523d82523d6000602084013e611b6d565b606091505b50600081511415611bb3576040517f08c379a0000000000000000000000000000000000000000000000000000000008152600401611baa90612c2f565b60405180910390fd5b805181602001fd5b63150b7a0260e01b7bffffffffffffffffffffffffffffffffffffffffffffffffffffffff1916817bffffffffffffffffffffffffffffffffffffffffffffffffffffffff191614915050611c10565b600190505b949350505050565b505050565b6008805490506009600083815260200190815260200160002081905550600881908060018154018082558091505060019003906000526020600020016000909190919091505550565b60006001611c73846109ab565b611c7d9190612fa5565b9050600060076000848152602001908152602001600020549050818114611d62576000600660008673ffffffffffffffffffffffffffffffffffffffff1673ffffffffffffffffffffffffffffffffffffffff168152602001908152602001600020600084815260200190815260200160002054905080600660008773ffffffffffffffffffffffffffffffffffffffff1673ffffffffffffffffffffffffffffffffffffffff168152602001908152602001600020600084815260200190815260200160002081905550816007600083815260200190815260200160002081905550505b6007600084815260200190815260200160002060009055600660008573ffffffffffffffffffffffffffffffffffffffff1673ffffffffffffffffffffffffffffffffffffffff16815260200190815260200160002060008381526020019081526020016000206000905550505050565b60006001600880549050611de79190612fa5565b9050600060096000848152602001908152602001600020549050600060088381548110611e3d577f4e487b7100000000000000000000000000000000000000000000000000000000600052603260045260246000fd5b906000526020600020015490508060088381548110611e85577f4e487b7100000000000000000000000000000000000000000000000000000000600052603260045260246000fd5b906000526020600020018190555081600960008381526020019081526020016000208190555060096000858152602001908152602001600020600090556008805480611efa577f4e487b7100000000000000000000000000000000000000000000000000000000600052603160045260246000fd5b6001900381819060005260206000200160009055905550505050565b6000611f21836109ab565b905081600660008573ffffffffffffffffffffffffffffffffffffffff1673ffffffffffffffffffffffffffffffffffffffff168152602001908152602001600020600083815260200190815260200160002081905550806007600084815260200190815260200160002081905550505050565b600080823b905060008111915050919050565b828054611fb49061308f565b90600052602060002090601f016020900481019282611fd6576000855561201d565b82601f10611fef57805160ff191683800117855561201d565b8280016001018555821561201d579182015b8281111561201c578251825591602001919060010190612001565b5b50905061202a919061202e565b5090565b5b8082111561204757600081600090555060010161202f565b5090565b600061205e61205984612e7b565b612e4a565b90508281526020810184848401111561207657600080fd5b61208184828561304d565b509392505050565b600061209c61209784612eab565b612e4a565b9050828152602081018484840111156120b457600080fd5b6120bf84828561304d565b509392505050565b6000813590506120d681613208565b92915050565b6000813590506120eb8161321f565b92915050565b60008135905061210081613236565b92915050565b60008151905061211581613236565b92915050565b600082601f83011261212c57600080fd5b813561213c84826020860161204b565b91505092915050565b600082601f83011261215657600080fd5b8135612166848260208601612089565b91505092915050565b60008135905061217e8161324d565b92915050565b60006020828403121561219657600080fd5b60006121a4848285016120c7565b91505092915050565b600080604083850312156121c057600080fd5b60006121ce858286016120c7565b92505060206121df858286016120c7565b9150509250929050565b6000806000606084860312156121fe57600080fd5b600061220c868287016120c7565b935050602061221d868287016120c7565b925050604061222e8682870161216f565b9150509250925092565b6000806000806080858703121561224e57600080fd5b600061225c878288016120c7565b945050602061226d878288016120c7565b935050604061227e8782880161216f565b925050606085013567ffffffffffffffff81111561229b57600080fd5b6122a78782880161211b565b91505092959194509250565b600080604083850312156122c657600080fd5b60006122d4858286016120c7565b92505060206122e5858286016120dc565b9150509250929050565b6000806040838503121561230257600080fd5b6000612310858286016120c7565b92505060206123218582860161216f565b9150509250929050565b60006020828403121561233d57600080fd5b600061234b848285016120f1565b91505092915050565b60006020828403121561236657600080fd5b600061237484828501612106565b91505092915050565b6000806040838503121561239057600080fd5b600083013567ffffffffffffffff8111156123aa57600080fd5b6123b685828601612145565b925050602083013567ffffffffffffffff8111156123d357600080fd5b6123df85828601612145565b9150509250929050565b6000602082840312156123fb57600080fd5b60006124098482850161216f565b91505092915050565b61241b81612fd9565b82525050565b61242a81612feb565b82525050565b600061243b82612edb565b6124458185612ef1565b935061245581856020860161305c565b61245e816131f7565b840191505092915050565b600061247482612ee6565b61247e8185612f02565b935061248e81856020860161305c565b612497816131f7565b840191505092915050565b60006124ad82612ee6565b6124b78185612f13565b93506124c781856020860161305c565b80840191505092915050565b60006124e0602b83612f02565b91507f455243373231456e756d657261626c653a206f776e657220696e646578206f7560008301527f74206f6620626f756e64730000000000000000000000000000000000000000006020830152604082019050919050565b6000612546603283612f02565b91507f4552433732313a207472616e7366657220746f206e6f6e20455243373231526560008301527f63656976657220696d706c656d656e74657200000000000000000000000000006020830152604082019050919050565b60006125ac601c83612f02565b91507f4552433732313a20746f6b656e20616c7265616479206d696e746564000000006000830152602082019050919050565b60006125ec601e83612f02565b91507f4f7065726174696f6e2066697265642062792061206e6f6e206f776e657200006000830152602082019050919050565b600061262c602483612f02565b91507f4552433732313a207472616e7366657220746f20746865207a65726f2061646460008301527f72657373000000000000000000000000000000000000000000000000000000006020830152604082019050919050565b6000612692601983612f02565b91507f4552433732313a20617070726f766520746f2063616c6c6572000000000000006000830152602082019050919050565b60006126d2602c83612f02565b91507f4552433732313a206f70657261746f7220717565727920666f72206e6f6e657860008301527f697374656e7420746f6b656e00000000000000000000000000000000000000006020830152604082019050919050565b6000612738603883612f02565b91507f4552433732313a20617070726f76652063616c6c6572206973206e6f74206f7760008301527f6e6572206e6f7220617070726f76656420666f7220616c6c00000000000000006020830152604082019050919050565b600061279e602a83612f02565b91507f4552433732313a2062616c616e636520717565727920666f7220746865207a6560008301527f726f2061646472657373000000000000000000000000000000000000000000006020830152604082019050919050565b6000612804602983612f02565b91507f4552433732313a206f776e657220717565727920666f72206e6f6e657869737460008301527f656e7420746f6b656e00000000000000000000000000000000000000000000006020830152604082019050919050565b600061286a602083612f02565b91507f4552433732313a206d696e7420746f20746865207a65726f20616464726573736000830152602082019050919050565b60006128aa602c83612f02565b91507f4552433732313a20617070726f76656420717565727920666f72206e6f6e657860008301527f697374656e7420746f6b656e00000000000000000000000000000000000000006020830152604082019050919050565b6000612910602983612f02565b91507f4552433732313a207472616e73666572206f6620746f6b656e2074686174206960008301527f73206e6f74206f776e00000000000000000000000000000000000000000000006020830152604082019050919050565b6000612976602f83612f02565b91507f4552433732314d657461646174613a2055524920717565727920666f72206e6f60008301527f6e6578697374656e7420746f6b656e00000000000000000000000000000000006020830152604082019050919050565b60006129dc602183612f02565b91507f4552433732313a20617070726f76616c20746f2063757272656e74206f776e6560008301527f72000000000000000000000000000000000000000000000000000000000000006020830152604082019050919050565b6000612a42603183612f02565b91507f4552433732313a207472616e736665722063616c6c6572206973206e6f74206f60008301527f776e6572206e6f7220617070726f7665640000000000000000000000000000006020830152604082019050919050565b6000612aa8602c83612f02565b91507f455243373231456e756d657261626c653a20676c6f62616c20696e646578206f60008301527f7574206f6620626f756e647300000000000000000000000000000000000000006020830152604082019050919050565b612b0a81613043565b82525050565b6000612b1c82856124a2565b9150612b2882846124a2565b91508190509392505050565b6000602082019050612b496000830184612412565b92915050565b6000608082019050612b646000830187612412565b612b716020830186612412565b612b7e6040830185612b01565b8181036060830152612b908184612430565b905095945050505050565b6000602082019050612bb06000830184612421565b92915050565b60006020820190508181036000830152612bd08184612469565b905092915050565b60006040820190508181036000830152612bf28185612469565b90508181036020830152612c068184612469565b90509392505050565b60006020820190508181036000830152612c28816124d3565b9050919050565b60006020820190508181036000830152612c4881612539565b9050919050565b60006020820190508181036000830152612c688161259f565b9050919050565b60006020820190508181036000830152612c88816125df565b9050919050565b60006020820190508181036000830152612ca88161261f565b9050919050565b60006020820190508181036000830152612cc881612685565b9050919050565b60006020820190508181036000830152612ce8816126c5565b9050919050565b60006020820190508181036000830152612d088161272b565b9050919050565b60006020820190508181036000830152612d2881612791565b9050919050565b60006020820190508181036000830152612d48816127f7565b9050919050565b60006020820190508181036000830152612d688161285d565b9050919050565b60006020820190508181036000830152612d888161289d565b9050919050565b60006020820190508181036000830152612da881612903565b9050919050565b60006020820190508181036000830152612dc881612969565b9050919050565b60006020820190508181036000830152612de8816129cf565b9050919050565b60006020820190508181036000830152612e0881612a35565b9050919050565b60006020820190508181036000830152612e2881612a9b565b9050919050565b6000602082019050612e446000830184612b01565b92915050565b6000604051905081810181811067ffffffffffffffff82111715612e7157612e706131c8565b5b8060405250919050565b600067ffffffffffffffff821115612e9657612e956131c8565b5b601f19601f8301169050602081019050919050565b600067ffffffffffffffff821115612ec657612ec56131c8565b5b601f19601f8301169050602081019050919050565b600081519050919050565b600081519050919050565b600082825260208201905092915050565b600082825260208201905092915050565b600081905092915050565b6000612f2982613043565b9150612f3483613043565b9250827fffffffffffffffffffffffffffffffffffffffffffffffffffffffffffffffff03821115612f6957612f6861313b565b5b828201905092915050565b6000612f7f82613043565b9150612f8a83613043565b925082612f9a57612f9961316a565b5b828204905092915050565b6000612fb082613043565b9150612fbb83613043565b925082821015612fce57612fcd61313b565b5b828203905092915050565b6000612fe482613023565b9050919050565b60008115159050919050565b60007fffffffff0000000000000000000000000000000000000000000000000000000082169050919050565b600073ffffffffffffffffffffffffffffffffffffffff82169050919050565b6000819050919050565b82818337600083830152505050565b60005b8381101561307a57808201518184015260208101905061305f565b83811115613089576000848401525b50505050565b600060028204905060018216806130a757607f821691505b602082108114156130bb576130ba613199565b5b50919050565b60006130cc82613043565b91507fffffffffffffffffffffffffffffffffffffffffffffffffffffffffffffffff8214156130ff576130fe61313b565b5b600182019050919050565b600061311582613043565b915061312083613043565b9250826131305761312f61316a565b5b828206905092915050565b7f4e487b7100000000000000000000000000000000000000000000000000000000600052601160045260246000fd5b7f4e487b7100000000000000000000000000000000000000000000000000000000600052601260045260246000fd5b7f4e487b7100000000000000000000000000000000000000000000000000000000600052602260045260246000fd5b7f4e487b7100000000000000000000000000000000000000000000000000000000600052604160045260246000fd5b6000601f19601f8301169050919050565b61321181612fd9565b811461321c57600080fd5b50565b61322881612feb565b811461323357600080fd5b50565b61323f81612ff7565b811461324a57600080fd5b50565b61325681613043565b811461326157600080fd5b5056fea2646970667358221220fc70dd6a0c4379fc96428370840bfebdc261075e2fbb6553d06a59c6fcac05d464736f6c63430008000033",
  "immutableReferences": {},
  "source": "// SPDX-License-Identifier: MIT\npragma solidity ^0.8.0;\n\nimport \"../node_modules/openzeppelin-solidity/contracts/token/ERC721/extensions/ERC721Enumerable.sol\";\n\ncontract UTIdeaPatent is ERC721Enumerable {\n\n    struct Idea {\n        string name;\n        string description;\n    }\n\n    uint256 counter;\n\n    mapping(uint256 => Idea) public tokenIdToIdeaInfo;\n\n    constructor() ERC721(\"Patent Idea\", \"UPI\") {\n        counter = 0;\n    }\n\n    function createIdea(string memory _name, string memory _description) public {\n        counter = counter + 1;\n        Idea memory newIdea = Idea(_name, _description);\n        tokenIdToIdeaInfo[counter] = newIdea;\n        _mint(msg.sender, counter);\n    }\n    \n    // Implement Task 1 Transfer Idea\n    function transferIdea(address _to1, uint256 _tokenId) public {\n        //1. Check if the sender is the ownerOf(_tokenId)\n        require(msg.sender == ownerOf(_tokenId), \"Operation fired by a non owner\");\n        //2. Use the safeTransferFrom(from, to, tokenId); function to transfer the idea\n        safeTransferFrom(msg.sender, _to1, _tokenId);\n    }\n}",
  "sourcePath": "/Users/abdelmbyassaroukou/dev/UT-Patent/contracts/UTIdeaPatent.sol",
  "compiler": {
    "name": "solc",
    "version": "0.8.0+commit.c7dfd78e.Emscripten.clang"
  },
  "schemaVersion": "3.4.0",
  "updatedAt": "2021-11-30T01:20:57.294Z",
  "networkType": "ethereum",
  "devdoc": {
    "kind": "dev",
    "methods": {
      "approve(address,uint256)": {
        "details": "See {IERC721-approve}."
      },
      "balanceOf(address)": {
        "details": "See {IERC721-balanceOf}."
      },
      "getApproved(uint256)": {
        "details": "See {IERC721-getApproved}."
      },
      "isApprovedForAll(address,address)": {
        "details": "See {IERC721-isApprovedForAll}."
      },
      "name()": {
        "details": "See {IERC721Metadata-name}."
      },
      "ownerOf(uint256)": {
        "details": "See {IERC721-ownerOf}."
      },
      "safeTransferFrom(address,address,uint256)": {
        "details": "See {IERC721-safeTransferFrom}."
      },
      "safeTransferFrom(address,address,uint256,bytes)": {
        "details": "See {IERC721-safeTransferFrom}."
      },
      "setApprovalForAll(address,bool)": {
        "details": "See {IERC721-setApprovalForAll}."
      },
      "supportsInterface(bytes4)": {
        "details": "See {IERC165-supportsInterface}."
      },
      "symbol()": {
        "details": "See {IERC721Metadata-symbol}."
      },
      "tokenByIndex(uint256)": {
        "details": "See {IERC721Enumerable-tokenByIndex}."
      },
      "tokenOfOwnerByIndex(address,uint256)": {
        "details": "See {IERC721Enumerable-tokenOfOwnerByIndex}."
      },
      "tokenURI(uint256)": {
        "details": "See {IERC721Metadata-tokenURI}."
      },
      "totalSupply()": {
        "details": "See {IERC721Enumerable-totalSupply}."
      },
      "transferFrom(address,address,uint256)": {
        "details": "See {IERC721-transferFrom}."
      }
    },
    "version": 1
  },
  "userdoc": {
    "kind": "user",
    "methods": {},
    "version": 1
  }
}